{
  "_format": "hh-sol-artifact-1",
  "contractName": "Subscription",
  "sourceName": "contracts/Subscription.sol",
  "abi": [
    {
      "inputs": [
        {
          "internalType": "uint256",
          "name": "_subscriptionPrice",
          "type": "uint256"
        },
        {
          "internalType": "uint256",
          "name": "_rewardValue",
          "type": "uint256"
        }
      ],
      "stateMutability": "nonpayable",
      "type": "constructor"
    },
    {
      "anonymous": false,
      "inputs": [
        {
          "indexed": true,
          "internalType": "address",
          "name": "previousOwner",
          "type": "address"
        },
        {
          "indexed": true,
          "internalType": "address",
          "name": "newOwner",
          "type": "address"
        }
      ],
      "name": "OwnershipTransferred",
      "type": "event"
    },
    {
      "anonymous": false,
      "inputs": [
        {
          "indexed": false,
          "internalType": "address",
          "name": "subscriber",
          "type": "address"
        }
      ],
      "name": "SomeoneSubscribed",
      "type": "event"
    },
    {
      "inputs": [
        {
          "internalType": "address",
          "name": "agent",
          "type": "address"
        }
      ],
      "name": "addAgent",
      "outputs": [],
      "stateMutability": "nonpayable",
      "type": "function"
    },
    {
      "inputs": [
        {
          "internalType": "address",
          "name": "subscriber",
          "type": "address"
        },
        {
          "internalType": "uint256",
          "name": "claimValue",
          "type": "uint256"
        },
        {
          "internalType": "uint256",
          "name": "nextClaimDateValue",
          "type": "uint256"
        }
      ],
      "name": "claim",
      "outputs": [],
      "stateMutability": "nonpayable",
      "type": "function"
    },
    {
      "inputs": [
        {
          "internalType": "address",
          "name": "subscriber",
          "type": "address"
        }
      ],
      "name": "getNextClaimDate",
      "outputs": [
        {
          "internalType": "uint256",
          "name": "",
          "type": "uint256"
        }
      ],
      "stateMutability": "view",
      "type": "function"
    },
    {
      "inputs": [
        {
          "internalType": "address",
          "name": "subscriber",
          "type": "address"
        }
      ],
      "name": "getRegistrationDate",
      "outputs": [
        {
          "internalType": "uint256",
          "name": "",
          "type": "uint256"
        }
      ],
      "stateMutability": "view",
      "type": "function"
    },
    {
      "inputs": [],
      "name": "owner",
      "outputs": [
        {
          "internalType": "address",
          "name": "",
          "type": "address"
        }
      ],
      "stateMutability": "view",
      "type": "function"
    },
    {
      "inputs": [
        {
          "internalType": "address",
          "name": "agent",
          "type": "address"
        }
      ],
      "name": "removeAgent",
      "outputs": [],
      "stateMutability": "nonpayable",
      "type": "function"
    },
    {
      "inputs": [],
      "name": "renounceOwnership",
      "outputs": [],
      "stateMutability": "nonpayable",
      "type": "function"
    },
    {
      "inputs": [],
      "name": "rewardValue",
      "outputs": [
        {
          "internalType": "uint256",
          "name": "",
          "type": "uint256"
        }
      ],
      "stateMutability": "view",
      "type": "function"
    },
    {
      "inputs": [],
      "name": "subscribe",
      "outputs": [],
      "stateMutability": "payable",
      "type": "function"
    },
    {
      "inputs": [
        {
          "internalType": "address",
          "name": "subscriber",
          "type": "address"
        }
      ],
      "name": "subscribeToCurrentChain",
      "outputs": [],
      "stateMutability": "nonpayable",
      "type": "function"
    },
    {
      "inputs": [],
      "name": "subscriptionPrice",
      "outputs": [
        {
          "internalType": "uint256",
          "name": "",
          "type": "uint256"
        }
      ],
      "stateMutability": "view",
      "type": "function"
    },
    {
      "inputs": [
        {
          "internalType": "address",
          "name": "newOwner",
          "type": "address"
        }
      ],
      "name": "transferOwnership",
      "outputs": [],
      "stateMutability": "nonpayable",
      "type": "function"
    }
  ],
  "bytecode": "0x60806040523480156200001157600080fd5b5060405162001498380380620014988339818101604052810190620000379190620001a8565b620000576200004b620000c560201b60201c565b620000cd60201b60201c565b81600581905550806006819055506001600260003373ffffffffffffffffffffffffffffffffffffffff1673ffffffffffffffffffffffffffffffffffffffff16815260200190815260200160002060006101000a81548160ff02191690831515021790555050506200020d565b600033905090565b60008060009054906101000a900473ffffffffffffffffffffffffffffffffffffffff169050816000806101000a81548173ffffffffffffffffffffffffffffffffffffffff021916908373ffffffffffffffffffffffffffffffffffffffff1602179055508173ffffffffffffffffffffffffffffffffffffffff168173ffffffffffffffffffffffffffffffffffffffff167f8be0079c531659141344cd1fd0a4f28419497f9722a3daafe3b4186f6b6457e060405160405180910390a35050565b600081519050620001a281620001f3565b92915050565b60008060408385031215620001bc57600080fd5b6000620001cc8582860162000191565b9250506020620001df8582860162000191565b9150509250929050565b6000819050919050565b620001fe81620001e9565b81146200020a57600080fd5b50565b61127b806200021d6000396000f3fe6080604052600436106100a75760003560e01c806384e798421161006457806384e79842146101ba5780638da5cb5b146101e35780638f449a051461020e57806397a6278e14610218578063bdc8e54c14610241578063f2fde38b1461026c576100a7565b806312c7df73146100ac5780632bc43fd9146100d757806355548e4514610100578063562578b61461013d578063667e19991461017a578063715018a6146101a3575b600080fd5b3480156100b857600080fd5b506100c1610295565b6040516100ce9190610f3f565b60405180910390f35b3480156100e357600080fd5b506100fe60048036038101906100f99190610caa565b61029b565b005b34801561010c57600080fd5b5061012760048036038101906101229190610c81565b610509565b6040516101349190610f3f565b60405180910390f35b34801561014957600080fd5b50610164600480360381019061015f9190610c81565b610552565b6040516101719190610f3f565b60405180910390f35b34801561018657600080fd5b506101a1600480360381019061019c9190610c81565b61059b565b005b3480156101af57600080fd5b506101b86107a8565b005b3480156101c657600080fd5b506101e160048036038101906101dc9190610c81565b610830565b005b3480156101ef57600080fd5b506101f8610907565b6040516102059190610e44565b60405180910390f35b610216610930565b005b34801561022457600080fd5b5061023f600480360381019061023a9190610c81565b6109b6565b005b34801561024d57600080fd5b50610256610a8d565b6040516102639190610f3f565b60405180910390f35b34801561027857600080fd5b50610293600480360381019061028e9190610c81565b610a93565b005b60065481565b600160008473ffffffffffffffffffffffffffffffffffffffff1673ffffffffffffffffffffffffffffffffffffffff16815260200190815260200160002060009054906101000a900460ff16610327576040517f08c379a000000000000000000000000000000000000000000000000000000000815260040161031e90610e9f565b60405180910390fd5b60008373ffffffffffffffffffffffffffffffffffffffff168360405161034d90610e2f565b60006040518083038185875af1925050503d806000811461038a576040519150601f19603f3d011682016040523d82523d6000602084013e61038f565b606091505b50509050806103d3576040517f08c379a00000000000000000000000000000000000000000000000000000000081526004016103ca90610ebf565b60405180910390fd5b81600360008673ffffffffffffffffffffffffffffffffffffffff1673ffffffffffffffffffffffffffffffffffffffff1681526020019081526020016000208190555061012c600460008673ffffffffffffffffffffffffffffffffffffffff1673ffffffffffffffffffffffffffffffffffffffff168152602001908152602001600020546104649190610f76565b600360008673ffffffffffffffffffffffffffffffffffffffff1673ffffffffffffffffffffffffffffffffffffffff168152602001908152602001600020541115610503576000600160008673ffffffffffffffffffffffffffffffffffffffff1673ffffffffffffffffffffffffffffffffffffffff16815260200190815260200160002060006101000a81548160ff0219169083151502179055505b50505050565b6000600360008373ffffffffffffffffffffffffffffffffffffffff1673ffffffffffffffffffffffffffffffffffffffff168152602001908152602001600020549050919050565b6000600460008373ffffffffffffffffffffffffffffffffffffffff1673ffffffffffffffffffffffffffffffffffffffff168152602001908152602001600020549050919050565b600260003373ffffffffffffffffffffffffffffffffffffffff1673ffffffffffffffffffffffffffffffffffffffff16815260200190815260200160002060009054906101000a900460ff16610627576040517f08c379a000000000000000000000000000000000000000000000000000000000815260040161061e90610e5f565b60405180910390fd5b60001515600160008373ffffffffffffffffffffffffffffffffffffffff1673ffffffffffffffffffffffffffffffffffffffff16815260200190815260200160002060009054906101000a900460ff161515146106ba576040517f08c379a00000000000000000000000000000000000000000000000000000000081526004016106b190610f1f565b60405180910390fd5b60018060008373ffffffffffffffffffffffffffffffffffffffff1673ffffffffffffffffffffffffffffffffffffffff16815260200190815260200160002060006101000a81548160ff02191690831515021790555042600460008373ffffffffffffffffffffffffffffffffffffffff1673ffffffffffffffffffffffffffffffffffffffff16815260200190815260200160002081905550600a426107629190610f76565b600360008373ffffffffffffffffffffffffffffffffffffffff1673ffffffffffffffffffffffffffffffffffffffff1681526020019081526020016000208190555050565b6107b0610b8b565b73ffffffffffffffffffffffffffffffffffffffff166107ce610907565b73ffffffffffffffffffffffffffffffffffffffff1614610824576040517f08c379a000000000000000000000000000000000000000000000000000000000815260040161081b90610eff565b60405180910390fd5b61082e6000610b93565b565b610838610b8b565b73ffffffffffffffffffffffffffffffffffffffff16610856610907565b73ffffffffffffffffffffffffffffffffffffffff16146108ac576040517f08c379a00000000000000000000000000000000000000000000000000000000081526004016108a390610eff565b60405180910390fd5b6001600260008373ffffffffffffffffffffffffffffffffffffffff1673ffffffffffffffffffffffffffffffffffffffff16815260200190815260200160002060006101000a81548160ff02191690831515021790555050565b60008060009054906101000a900473ffffffffffffffffffffffffffffffffffffffff16905090565b6005543414610974576040517f08c379a000000000000000000000000000000000000000000000000000000000815260040161096b90610edf565b60405180910390fd5b61097d3361059b565b7f8b10164fab72f1cca2949c1bdaaa23a0ac7ea68833417a84acc427bc49b104b4336040516109ac9190610e44565b60405180910390a1565b6109be610b8b565b73ffffffffffffffffffffffffffffffffffffffff166109dc610907565b73ffffffffffffffffffffffffffffffffffffffff1614610a32576040517f08c379a0000000000000000000000000000000000000000000000000000000008152600401610a2990610eff565b60405180910390fd5b6000600260008373ffffffffffffffffffffffffffffffffffffffff1673ffffffffffffffffffffffffffffffffffffffff16815260200190815260200160002060006101000a81548160ff02191690831515021790555050565b60055481565b610a9b610b8b565b73ffffffffffffffffffffffffffffffffffffffff16610ab9610907565b73ffffffffffffffffffffffffffffffffffffffff1614610b0f576040517f08c379a0000000000000000000000000000000000000000000000000000000008152600401610b0690610eff565b60405180910390fd5b600073ffffffffffffffffffffffffffffffffffffffff168173ffffffffffffffffffffffffffffffffffffffff161415610b7f576040517f08c379a0000000000000000000000000000000000000000000000000000000008152600401610b7690610e7f565b60405180910390fd5b610b8881610b93565b50565b600033905090565b60008060009054906101000a900473ffffffffffffffffffffffffffffffffffffffff169050816000806101000a81548173ffffffffffffffffffffffffffffffffffffffff021916908373ffffffffffffffffffffffffffffffffffffffff1602179055508173ffffffffffffffffffffffffffffffffffffffff168173ffffffffffffffffffffffffffffffffffffffff167f8be0079c531659141344cd1fd0a4f28419497f9722a3daafe3b4186f6b6457e060405160405180910390a35050565b600081359050610c6681611217565b92915050565b600081359050610c7b8161122e565b92915050565b600060208284031215610c9357600080fd5b6000610ca184828501610c57565b91505092915050565b600080600060608486031215610cbf57600080fd5b6000610ccd86828701610c57565b9350506020610cde86828701610c6c565b9250506040610cef86828701610c6c565b9150509250925092565b610d0281610fcc565b82525050565b6000610d15602283610f65565b9150610d2082611037565b604082019050919050565b6000610d38602683610f65565b9150610d4382611086565b604082019050919050565b6000610d5b602783610f65565b9150610d66826110d5565b604082019050919050565b6000610d7e603583610f65565b9150610d8982611124565b604082019050919050565b6000610da1601183610f65565b9150610dac82611173565b602082019050919050565b6000610dc4602083610f65565b9150610dcf8261119c565b602082019050919050565b6000610de7602c83610f65565b9150610df2826111c5565b604082019050919050565b6000610e0a600083610f5a565b9150610e1582611214565b600082019050919050565b610e2981610ffe565b82525050565b6000610e3a82610dfd565b9150819050919050565b6000602082019050610e596000830184610cf9565b92915050565b60006020820190508181036000830152610e7881610d08565b9050919050565b60006020820190508181036000830152610e9881610d2b565b9050919050565b60006020820190508181036000830152610eb881610d4e565b9050919050565b60006020820190508181036000830152610ed881610d71565b9050919050565b60006020820190508181036000830152610ef881610d94565b9050919050565b60006020820190508181036000830152610f1881610db7565b9050919050565b60006020820190508181036000830152610f3881610dda565b9050919050565b6000602082019050610f546000830184610e20565b92915050565b600081905092915050565b600082825260208201905092915050565b6000610f8182610ffe565b9150610f8c83610ffe565b9250827fffffffffffffffffffffffffffffffffffffffffffffffffffffffffffffffff03821115610fc157610fc0611008565b5b828201905092915050565b6000610fd782610fde565b9050919050565b600073ffffffffffffffffffffffffffffffffffffffff82169050919050565b6000819050919050565b7f4e487b7100000000000000000000000000000000000000000000000000000000600052601160045260246000fd5b7f4f6e6c79206167656e74732063616e2063616c6c20746869732066756e63746960008201527f6f6e000000000000000000000000000000000000000000000000000000000000602082015250565b7f4f776e61626c653a206e6577206f776e657220697320746865207a65726f206160008201527f6464726573730000000000000000000000000000000000000000000000000000602082015250565b7f596f75206d757374206265207375627363726962656420746f20636c61696d2060008201527f7265776172647300000000000000000000000000000000000000000000000000602082015250565b7f5765206172652062726f6b6520736f20776520776f6e2774206769766520796f60008201527f7520616e79206d6f6e6579207269676874206e6f770000000000000000000000602082015250565b7f4e6f7420636f7272656374207072696365000000000000000000000000000000600082015250565b7f4f776e61626c653a2063616c6c6572206973206e6f7420746865206f776e6572600082015250565b7f596f752063616e2068617665206f6e6c79206f6e65207375627363726970746960008201527f6f6e20617420612074696d650000000000000000000000000000000000000000602082015250565b50565b61122081610fcc565b811461122b57600080fd5b50565b61123781610ffe565b811461124257600080fd5b5056fea2646970667358221220166161528a275e00426e004101b9bbe930d09900cfd5c7e4d6bf1a268f01b30164736f6c63430008040033",
  "linkReferences": {},
  "deployedLinkReferences": {}
}