{
  "_format": "hh-sol-artifact-1",
  "contractName": "Subscription",
  "sourceName": "contracts/Subscription.sol",
  "abi": [
    {
      "inputs": [
        {
          "internalType": "uint256",
          "name": "_subscriptionPrice",
          "type": "uint256"
        },
        {
          "internalType": "uint256",
          "name": "_rewardValue",
          "type": "uint256"
        }
      ],
      "stateMutability": "nonpayable",
      "type": "constructor"
    },
    {
      "anonymous": false,
      "inputs": [
        {
          "indexed": true,
          "internalType": "address",
          "name": "previousOwner",
          "type": "address"
        },
        {
          "indexed": true,
          "internalType": "address",
          "name": "newOwner",
          "type": "address"
        }
      ],
      "name": "OwnershipTransferred",
      "type": "event"
    },
    {
      "anonymous": false,
      "inputs": [
        {
          "indexed": false,
          "internalType": "address",
          "name": "subscriber",
          "type": "address"
        }
      ],
      "name": "SomeoneSubscribed",
      "type": "event"
    },
    {
      "inputs": [
        {
          "internalType": "address",
          "name": "agent",
          "type": "address"
        }
      ],
      "name": "addAgent",
      "outputs": [],
      "stateMutability": "nonpayable",
      "type": "function"
    },
    {
      "inputs": [],
      "name": "owner",
      "outputs": [
        {
          "internalType": "address",
          "name": "",
          "type": "address"
        }
      ],
      "stateMutability": "view",
      "type": "function"
    },
    {
      "inputs": [
        {
          "internalType": "address",
          "name": "agent",
          "type": "address"
        }
      ],
      "name": "removeAgent",
      "outputs": [],
      "stateMutability": "nonpayable",
      "type": "function"
    },
    {
      "inputs": [],
      "name": "renounceOwnership",
      "outputs": [],
      "stateMutability": "nonpayable",
      "type": "function"
    },
    {
      "inputs": [],
      "name": "subscribe",
      "outputs": [],
      "stateMutability": "payable",
      "type": "function"
    },
    {
      "inputs": [
        {
          "internalType": "address",
          "name": "_subscriber",
          "type": "address"
        }
      ],
      "name": "subscribeToCurrentChain",
      "outputs": [],
      "stateMutability": "nonpayable",
      "type": "function"
    },
    {
      "inputs": [
        {
          "internalType": "address",
          "name": "newOwner",
          "type": "address"
        }
      ],
      "name": "transferOwnership",
      "outputs": [],
      "stateMutability": "nonpayable",
      "type": "function"
    }
  ],
  "bytecode": "0x608060405234801561001057600080fd5b50604051610c3e380380610c3e8339818101604052810190610032919061019c565b61004e6100436100bb60201b60201c565b6100c360201b60201c565b81600381905550806004819055506001600260003373ffffffffffffffffffffffffffffffffffffffff1673ffffffffffffffffffffffffffffffffffffffff16815260200190815260200160002060006101000a81548160ff02191690831515021790555050506101f9565b600033905090565b60008060009054906101000a900473ffffffffffffffffffffffffffffffffffffffff169050816000806101000a81548173ffffffffffffffffffffffffffffffffffffffff021916908373ffffffffffffffffffffffffffffffffffffffff1602179055508173ffffffffffffffffffffffffffffffffffffffff168173ffffffffffffffffffffffffffffffffffffffff167f8be0079c531659141344cd1fd0a4f28419497f9722a3daafe3b4186f6b6457e060405160405180910390a35050565b600081519050610196816101e2565b92915050565b600080604083850312156101af57600080fd5b60006101bd85828601610187565b92505060206101ce85828601610187565b9150509250929050565b6000819050919050565b6101eb816101d8565b81146101f657600080fd5b50565b610a36806102086000396000f3fe6080604052600436106100705760003560e01c80638da5cb5b1161004e5780638da5cb5b146100de5780638f449a051461010957806397a6278e14610113578063f2fde38b1461013c57610070565b8063667e199914610075578063715018a61461009e57806384e79842146100b5575b600080fd5b34801561008157600080fd5b5061009c60048036038101906100979190610757565b610165565b005b3480156100aa57600080fd5b506100b361024b565b005b3480156100c157600080fd5b506100dc60048036038101906100d79190610757565b6102d3565b005b3480156100ea57600080fd5b506100f36103aa565b604051610100919061081b565b60405180910390f35b6101116103d3565b005b34801561011f57600080fd5b5061013a60048036038101906101359190610757565b6104a7565b005b34801561014857600080fd5b50610163600480360381019061015e9190610757565b61057e565b005b600260003373ffffffffffffffffffffffffffffffffffffffff1673ffffffffffffffffffffffffffffffffffffffff16815260200190815260200160002060009054906101000a900460ff166101f1576040517f08c379a00000000000000000000000000000000000000000000000000000000081526004016101e890610836565b60405180910390fd5b60018060008373ffffffffffffffffffffffffffffffffffffffff1673ffffffffffffffffffffffffffffffffffffffff16815260200190815260200160002060006101000a81548160ff02191690831515021790555050565b610253610676565b73ffffffffffffffffffffffffffffffffffffffff166102716103aa565b73ffffffffffffffffffffffffffffffffffffffff16146102c7576040517f08c379a00000000000000000000000000000000000000000000000000000000081526004016102be90610896565b60405180910390fd5b6102d1600061067e565b565b6102db610676565b73ffffffffffffffffffffffffffffffffffffffff166102f96103aa565b73ffffffffffffffffffffffffffffffffffffffff161461034f576040517f08c379a000000000000000000000000000000000000000000000000000000000815260040161034690610896565b60405180910390fd5b6001600260008373ffffffffffffffffffffffffffffffffffffffff1673ffffffffffffffffffffffffffffffffffffffff16815260200190815260200160002060006101000a81548160ff02191690831515021790555050565b60008060009054906101000a900473ffffffffffffffffffffffffffffffffffffffff16905090565b6003543414610417576040517f08c379a000000000000000000000000000000000000000000000000000000000815260040161040e90610876565b60405180910390fd5b60018060003373ffffffffffffffffffffffffffffffffffffffff1673ffffffffffffffffffffffffffffffffffffffff16815260200190815260200160002060006101000a81548160ff0219169083151502179055507f8b10164fab72f1cca2949c1bdaaa23a0ac7ea68833417a84acc427bc49b104b43360405161049d919061081b565b60405180910390a1565b6104af610676565b73ffffffffffffffffffffffffffffffffffffffff166104cd6103aa565b73ffffffffffffffffffffffffffffffffffffffff1614610523576040517f08c379a000000000000000000000000000000000000000000000000000000000815260040161051a90610896565b60405180910390fd5b6000600260008373ffffffffffffffffffffffffffffffffffffffff1673ffffffffffffffffffffffffffffffffffffffff16815260200190815260200160002060006101000a81548160ff02191690831515021790555050565b610586610676565b73ffffffffffffffffffffffffffffffffffffffff166105a46103aa565b73ffffffffffffffffffffffffffffffffffffffff16146105fa576040517f08c379a00000000000000000000000000000000000000000000000000000000081526004016105f190610896565b60405180910390fd5b600073ffffffffffffffffffffffffffffffffffffffff168173ffffffffffffffffffffffffffffffffffffffff16141561066a576040517f08c379a000000000000000000000000000000000000000000000000000000000815260040161066190610856565b60405180910390fd5b6106738161067e565b50565b600033905090565b60008060009054906101000a900473ffffffffffffffffffffffffffffffffffffffff169050816000806101000a81548173ffffffffffffffffffffffffffffffffffffffff021916908373ffffffffffffffffffffffffffffffffffffffff1602179055508173ffffffffffffffffffffffffffffffffffffffff168173ffffffffffffffffffffffffffffffffffffffff167f8be0079c531659141344cd1fd0a4f28419497f9722a3daafe3b4186f6b6457e060405160405180910390a35050565b600081359050610751816109e9565b92915050565b60006020828403121561076957600080fd5b600061077784828501610742565b91505092915050565b610789816108c7565b82525050565b600061079c6022836108b6565b91506107a7826108f9565b604082019050919050565b60006107bf6026836108b6565b91506107ca82610948565b604082019050919050565b60006107e26011836108b6565b91506107ed82610997565b602082019050919050565b60006108056020836108b6565b9150610810826109c0565b602082019050919050565b60006020820190506108306000830184610780565b92915050565b6000602082019050818103600083015261084f8161078f565b9050919050565b6000602082019050818103600083015261086f816107b2565b9050919050565b6000602082019050818103600083015261088f816107d5565b9050919050565b600060208201905081810360008301526108af816107f8565b9050919050565b600082825260208201905092915050565b60006108d2826108d9565b9050919050565b600073ffffffffffffffffffffffffffffffffffffffff82169050919050565b7f4f6e6c79206167656e74732063616e2063616c6c20746869732066756e63746960008201527f6f6e000000000000000000000000000000000000000000000000000000000000602082015250565b7f4f776e61626c653a206e6577206f776e657220697320746865207a65726f206160008201527f6464726573730000000000000000000000000000000000000000000000000000602082015250565b7f4e6f7420636f7272656374207072696365000000000000000000000000000000600082015250565b7f4f776e61626c653a2063616c6c6572206973206e6f7420746865206f776e6572600082015250565b6109f2816108c7565b81146109fd57600080fd5b5056fea26469706673582212209036a0cae350060827dac411abf0073df955de1e6096d5e573563045e94994a064736f6c63430008040033",
  "linkReferences": {},
  "deployedLinkReferences": {}
}