{
  "_format": "hh-sol-artifact-1",
  "contractName": "Subscription",
  "sourceName": "contracts/Subscription.sol",
  "abi": [
    {
      "inputs": [
        {
          "internalType": "uint256",
          "name": "_subscriptionPrice",
          "type": "uint256"
        },
        {
          "internalType": "uint256",
          "name": "_rewardValue",
          "type": "uint256"
        }
      ],
      "stateMutability": "nonpayable",
      "type": "constructor"
    },
    {
      "anonymous": false,
      "inputs": [
        {
          "indexed": true,
          "internalType": "address",
          "name": "previousOwner",
          "type": "address"
        },
        {
          "indexed": true,
          "internalType": "address",
          "name": "newOwner",
          "type": "address"
        }
      ],
      "name": "OwnershipTransferred",
      "type": "event"
    },
    {
      "anonymous": false,
      "inputs": [
        {
          "indexed": false,
          "internalType": "address",
          "name": "subscriber",
          "type": "address"
        }
      ],
      "name": "SomeoneSubscribed",
      "type": "event"
    },
    {
      "inputs": [
        {
          "internalType": "address",
          "name": "agent",
          "type": "address"
        }
      ],
      "name": "addAgent",
      "outputs": [],
      "stateMutability": "nonpayable",
      "type": "function"
    },
    {
      "inputs": [
        {
          "internalType": "address",
          "name": "",
          "type": "address"
        }
      ],
      "name": "agents",
      "outputs": [
        {
          "internalType": "bool",
          "name": "",
          "type": "bool"
        }
      ],
      "stateMutability": "view",
      "type": "function"
    },
    {
      "inputs": [
        {
          "internalType": "uint256",
          "name": "multiplier",
          "type": "uint256"
        },
        {
          "internalType": "address",
          "name": "subscriber",
          "type": "address"
        }
      ],
      "name": "claim",
      "outputs": [],
      "stateMutability": "nonpayable",
      "type": "function"
    },
    {
      "inputs": [
        {
          "internalType": "address",
          "name": "",
          "type": "address"
        }
      ],
      "name": "nextClaimDate",
      "outputs": [
        {
          "internalType": "uint256",
          "name": "",
          "type": "uint256"
        }
      ],
      "stateMutability": "view",
      "type": "function"
    },
    {
      "inputs": [],
      "name": "owner",
      "outputs": [
        {
          "internalType": "address",
          "name": "",
          "type": "address"
        }
      ],
      "stateMutability": "view",
      "type": "function"
    },
    {
      "inputs": [
        {
          "internalType": "address",
          "name": "",
          "type": "address"
        }
      ],
      "name": "registrationDate",
      "outputs": [
        {
          "internalType": "uint256",
          "name": "",
          "type": "uint256"
        }
      ],
      "stateMutability": "view",
      "type": "function"
    },
    {
      "inputs": [
        {
          "internalType": "address",
          "name": "agent",
          "type": "address"
        }
      ],
      "name": "removeAgent",
      "outputs": [],
      "stateMutability": "nonpayable",
      "type": "function"
    },
    {
      "inputs": [],
      "name": "renounceOwnership",
      "outputs": [],
      "stateMutability": "nonpayable",
      "type": "function"
    },
    {
      "inputs": [],
      "name": "subscribe",
      "outputs": [],
      "stateMutability": "payable",
      "type": "function"
    },
    {
      "inputs": [
        {
          "internalType": "address",
          "name": "subscriber",
          "type": "address"
        }
      ],
      "name": "subscribeToCurrentChain",
      "outputs": [],
      "stateMutability": "nonpayable",
      "type": "function"
    },
    {
      "inputs": [
        {
          "internalType": "address",
          "name": "",
          "type": "address"
        }
      ],
      "name": "subscribers",
      "outputs": [
        {
          "internalType": "bool",
          "name": "",
          "type": "bool"
        }
      ],
      "stateMutability": "view",
      "type": "function"
    },
    {
      "inputs": [
        {
          "internalType": "address",
          "name": "newOwner",
          "type": "address"
        }
      ],
      "name": "transferOwnership",
      "outputs": [],
      "stateMutability": "nonpayable",
      "type": "function"
    },
    {
      "inputs": [
        {
          "internalType": "address",
          "name": "subscriber",
          "type": "address"
        }
      ],
      "name": "unsubscribe",
      "outputs": [],
      "stateMutability": "nonpayable",
      "type": "function"
    }
  ],
  "bytecode": "0x60806040523480156200001157600080fd5b50604051620012af380380620012af8339818101604052810190620000379190620001a8565b620000576200004b620000c560201b60201c565b620000cd60201b60201c565b81600581905550806006819055506001600260003373ffffffffffffffffffffffffffffffffffffffff1673ffffffffffffffffffffffffffffffffffffffff16815260200190815260200160002060006101000a81548160ff02191690831515021790555050506200020d565b600033905090565b60008060009054906101000a900473ffffffffffffffffffffffffffffffffffffffff169050816000806101000a81548173ffffffffffffffffffffffffffffffffffffffff021916908373ffffffffffffffffffffffffffffffffffffffff1602179055508173ffffffffffffffffffffffffffffffffffffffff168173ffffffffffffffffffffffffffffffffffffffff167f8be0079c531659141344cd1fd0a4f28419497f9722a3daafe3b4186f6b6457e060405160405180910390a35050565b600081519050620001a281620001f3565b92915050565b60008060408385031215620001bc57600080fd5b6000620001cc8582860162000191565b9250506020620001df8582860162000191565b9150509250929050565b6000819050919050565b620001fe81620001e9565b81146200020a57600080fd5b50565b611092806200021d6000396000f3fe6080604052600436106100c25760003560e01c80638f449a051161007f578063a2911fcd11610059578063a2911fcd14610231578063ddd5e1b21461026e578063f2fde38b14610297578063fd66091e146102c0576100c2565b80638f449a05146101c1578063921f9092146101cb57806397a6278e14610208576100c2565b80635745ae28146100c7578063667e199914610104578063715018a61461012d5780637262561c1461014457806384e798421461016d5780638da5cb5b14610196575b600080fd5b3480156100d357600080fd5b506100ee60048036038101906100e99190610bd1565b6102fd565b6040516100fb9190610d42565b60405180910390f35b34801561011057600080fd5b5061012b60048036038101906101269190610bd1565b61031d565b005b34801561013957600080fd5b50610142610403565b005b34801561015057600080fd5b5061016b60048036038101906101669190610bd1565b61048b565b005b34801561017957600080fd5b50610194600480360381019061018f9190610bd1565b610572565b005b3480156101a257600080fd5b506101ab610649565b6040516101b89190610d27565b60405180910390f35b6101c9610672565b005b3480156101d757600080fd5b506101f260048036038101906101ed9190610bd1565b610796565b6040516101ff9190610ddd565b60405180910390f35b34801561021457600080fd5b5061022f600480360381019061022a9190610bd1565b6107ae565b005b34801561023d57600080fd5b5061025860048036038101906102539190610bd1565b610885565b6040516102659190610ddd565b60405180910390f35b34801561027a57600080fd5b5061029560048036038101906102909190610bfa565b61089d565b005b3480156102a357600080fd5b506102be60048036038101906102b99190610bd1565b6109c3565b005b3480156102cc57600080fd5b506102e760048036038101906102e29190610bd1565b610abb565b6040516102f49190610d42565b60405180910390f35b60016020528060005260406000206000915054906101000a900460ff1681565b600260003373ffffffffffffffffffffffffffffffffffffffff1673ffffffffffffffffffffffffffffffffffffffff16815260200190815260200160002060009054906101000a900460ff166103a9576040517f08c379a00000000000000000000000000000000000000000000000000000000081526004016103a090610d5d565b60405180910390fd5b60018060008373ffffffffffffffffffffffffffffffffffffffff1673ffffffffffffffffffffffffffffffffffffffff16815260200190815260200160002060006101000a81548160ff02191690831515021790555050565b61040b610adb565b73ffffffffffffffffffffffffffffffffffffffff16610429610649565b73ffffffffffffffffffffffffffffffffffffffff161461047f576040517f08c379a000000000000000000000000000000000000000000000000000000000815260040161047690610d9d565b60405180910390fd5b6104896000610ae3565b565b600260003373ffffffffffffffffffffffffffffffffffffffff1673ffffffffffffffffffffffffffffffffffffffff16815260200190815260200160002060009054906101000a900460ff16610517576040517f08c379a000000000000000000000000000000000000000000000000000000000815260040161050e90610d5d565b60405180910390fd5b6000600160008373ffffffffffffffffffffffffffffffffffffffff1673ffffffffffffffffffffffffffffffffffffffff16815260200190815260200160002060006101000a81548160ff02191690831515021790555050565b61057a610adb565b73ffffffffffffffffffffffffffffffffffffffff16610598610649565b73ffffffffffffffffffffffffffffffffffffffff16146105ee576040517f08c379a00000000000000000000000000000000000000000000000000000000081526004016105e590610d9d565b60405180910390fd5b6001600260008373ffffffffffffffffffffffffffffffffffffffff1673ffffffffffffffffffffffffffffffffffffffff16815260200190815260200160002060006101000a81548160ff02191690831515021790555050565b60008060009054906101000a900473ffffffffffffffffffffffffffffffffffffffff16905090565b60018060003373ffffffffffffffffffffffffffffffffffffffff1673ffffffffffffffffffffffffffffffffffffffff16815260200190815260200160002060006101000a81548160ff02191690831515021790555042600460003373ffffffffffffffffffffffffffffffffffffffff1673ffffffffffffffffffffffffffffffffffffffff16815260200190815260200160002081905550603c4261071a9190610e14565b600360003373ffffffffffffffffffffffffffffffffffffffff1673ffffffffffffffffffffffffffffffffffffffff168152602001908152602001600020819055507f8b10164fab72f1cca2949c1bdaaa23a0ac7ea68833417a84acc427bc49b104b43360405161078c9190610d27565b60405180910390a1565b60036020528060005260406000206000915090505481565b6107b6610adb565b73ffffffffffffffffffffffffffffffffffffffff166107d4610649565b73ffffffffffffffffffffffffffffffffffffffff161461082a576040517f08c379a000000000000000000000000000000000000000000000000000000000815260040161082190610d9d565b60405180910390fd5b6000600260008373ffffffffffffffffffffffffffffffffffffffff1673ffffffffffffffffffffffffffffffffffffffff16815260200190815260200160002060006101000a81548160ff02191690831515021790555050565b60046020528060005260406000206000915090505481565b6000826006546108ad9190610e6a565b9050603c836108bc9190610e6a565b600360008473ffffffffffffffffffffffffffffffffffffffff1673ffffffffffffffffffffffffffffffffffffffff168152602001908152602001600020600082825461090a9190610e14565b9250508190555060008273ffffffffffffffffffffffffffffffffffffffff168260405161093790610d12565b60006040518083038185875af1925050503d8060008114610974576040519150601f19603f3d011682016040523d82523d6000602084013e610979565b606091505b50509050806109bd576040517f08c379a00000000000000000000000000000000000000000000000000000000081526004016109b490610dbd565b60405180910390fd5b50505050565b6109cb610adb565b73ffffffffffffffffffffffffffffffffffffffff166109e9610649565b73ffffffffffffffffffffffffffffffffffffffff1614610a3f576040517f08c379a0000000000000000000000000000000000000000000000000000000008152600401610a3690610d9d565b60405180910390fd5b600073ffffffffffffffffffffffffffffffffffffffff168173ffffffffffffffffffffffffffffffffffffffff161415610aaf576040517f08c379a0000000000000000000000000000000000000000000000000000000008152600401610aa690610d7d565b60405180910390fd5b610ab881610ae3565b50565b60026020528060005260406000206000915054906101000a900460ff1681565b600033905090565b60008060009054906101000a900473ffffffffffffffffffffffffffffffffffffffff169050816000806101000a81548173ffffffffffffffffffffffffffffffffffffffff021916908373ffffffffffffffffffffffffffffffffffffffff1602179055508173ffffffffffffffffffffffffffffffffffffffff168173ffffffffffffffffffffffffffffffffffffffff167f8be0079c531659141344cd1fd0a4f28419497f9722a3daafe3b4186f6b6457e060405160405180910390a35050565b600081359050610bb68161102e565b92915050565b600081359050610bcb81611045565b92915050565b600060208284031215610be357600080fd5b6000610bf184828501610ba7565b91505092915050565b60008060408385031215610c0d57600080fd5b6000610c1b85828601610bbc565b9250506020610c2c85828601610ba7565b9150509250929050565b610c3f81610ec4565b82525050565b610c4e81610ed6565b82525050565b6000610c61602283610e03565b9150610c6c82610f3b565b604082019050919050565b6000610c84602683610e03565b9150610c8f82610f8a565b604082019050919050565b6000610ca7602083610e03565b9150610cb282610fd9565b602082019050919050565b6000610cca601783610e03565b9150610cd582611002565b602082019050919050565b6000610ced600083610df8565b9150610cf88261102b565b600082019050919050565b610d0c81610f02565b82525050565b6000610d1d82610ce0565b9150819050919050565b6000602082019050610d3c6000830184610c36565b92915050565b6000602082019050610d576000830184610c45565b92915050565b60006020820190508181036000830152610d7681610c54565b9050919050565b60006020820190508181036000830152610d9681610c77565b9050919050565b60006020820190508181036000830152610db681610c9a565b9050919050565b60006020820190508181036000830152610dd681610cbd565b9050919050565b6000602082019050610df26000830184610d03565b92915050565b600081905092915050565b600082825260208201905092915050565b6000610e1f82610f02565b9150610e2a83610f02565b9250827fffffffffffffffffffffffffffffffffffffffffffffffffffffffffffffffff03821115610e5f57610e5e610f0c565b5b828201905092915050565b6000610e7582610f02565b9150610e8083610f02565b9250817fffffffffffffffffffffffffffffffffffffffffffffffffffffffffffffffff0483118215151615610eb957610eb8610f0c565b5b828202905092915050565b6000610ecf82610ee2565b9050919050565b60008115159050919050565b600073ffffffffffffffffffffffffffffffffffffffff82169050919050565b6000819050919050565b7f4e487b7100000000000000000000000000000000000000000000000000000000600052601160045260246000fd5b7f4f6e6c79206167656e74732063616e2063616c6c20746869732066756e63746960008201527f6f6e000000000000000000000000000000000000000000000000000000000000602082015250565b7f4f776e61626c653a206e6577206f776e657220697320746865207a65726f206160008201527f6464726573730000000000000000000000000000000000000000000000000000602082015250565b7f4f776e61626c653a2063616c6c6572206973206e6f7420746865206f776e6572600082015250565b7f536f6d657468696e672077656e742077726f6e67203a28000000000000000000600082015250565b50565b61103781610ec4565b811461104257600080fd5b50565b61104e81610f02565b811461105957600080fd5b5056fea264697066735822122077238002a4777b7229c7d7f22d768fc68d3d71fcb7f3f4bff3e86675a7bd6e8164736f6c63430008040033",
  "linkReferences": {},
  "deployedLinkReferences": {}
}