{
  "_format": "hh-sol-artifact-1",
  "contractName": "Subscription",
  "sourceName": "contracts/Subscription.sol",
  "abi": [
    {
      "inputs": [
        {
          "internalType": "uint256",
          "name": "_subscriptionPrice",
          "type": "uint256"
        },
        {
          "internalType": "uint256",
          "name": "_rewardValue",
          "type": "uint256"
        }
      ],
      "stateMutability": "nonpayable",
      "type": "constructor"
    },
    {
      "anonymous": false,
      "inputs": [
        {
          "indexed": false,
          "internalType": "address",
          "name": "subscriber",
          "type": "address"
        }
      ],
      "name": "SomeoneSubscribed",
      "type": "event"
    },
    {
      "inputs": [],
      "name": "subscribe",
      "outputs": [],
      "stateMutability": "payable",
      "type": "function"
    },
    {
      "inputs": [
        {
          "internalType": "address",
          "name": "_subscriber",
          "type": "address"
        }
      ],
      "name": "subscribeToCurrentChain",
      "outputs": [],
      "stateMutability": "nonpayable",
      "type": "function"
    }
  ],
  "bytecode": "0x608060405234801561001057600080fd5b506040516105713803806105718339818101604052810190610032919061005c565b816001819055508060028190555050506100b9565b600081519050610056816100a2565b92915050565b6000806040838503121561006f57600080fd5b600061007d85828601610047565b925050602061008e85828601610047565b9150509250929050565b6000819050919050565b6100ab81610098565b81146100b657600080fd5b50565b6104a9806100c86000396000f3fe6080604052600436106100295760003560e01c8063667e19991461002e5780638f449a0514610057575b600080fd5b34801561003a57600080fd5b50610055600480360381019061005091906102c8565b610061565b005b61005f61014d565b005b600015156000808373ffffffffffffffffffffffffffffffffffffffff1673ffffffffffffffffffffffffffffffffffffffff16815260200190815260200160002060009054906101000a900460ff161515146100f3576040517f08c379a00000000000000000000000000000000000000000000000000000000081526004016100ea90610381565b60405180910390fd5b60016000808373ffffffffffffffffffffffffffffffffffffffff1673ffffffffffffffffffffffffffffffffffffffff16815260200190815260200160002060006101000a81548160ff02191690831515021790555050565b6001543414610191576040517f08c379a000000000000000000000000000000000000000000000000000000000815260040161018890610361565b60405180910390fd5b600015156000803373ffffffffffffffffffffffffffffffffffffffff1673ffffffffffffffffffffffffffffffffffffffff16815260200190815260200160002060009054906101000a900460ff16151514610223576040517f08c379a000000000000000000000000000000000000000000000000000000000815260040161021a90610381565b60405180910390fd5b60016000803373ffffffffffffffffffffffffffffffffffffffff1673ffffffffffffffffffffffffffffffffffffffff16815260200190815260200160002060006101000a81548160ff0219169083151502179055507f8b10164fab72f1cca2949c1bdaaa23a0ac7ea68833417a84acc427bc49b104b4336040516102a99190610346565b60405180910390a1565b6000813590506102c28161045c565b92915050565b6000602082840312156102da57600080fd5b60006102e8848285016102b3565b91505092915050565b6102fa816103b2565b82525050565b600061030d6011836103a1565b9150610318826103e4565b602082019050919050565b6000610330602c836103a1565b915061033b8261040d565b604082019050919050565b600060208201905061035b60008301846102f1565b92915050565b6000602082019050818103600083015261037a81610300565b9050919050565b6000602082019050818103600083015261039a81610323565b9050919050565b600082825260208201905092915050565b60006103bd826103c4565b9050919050565b600073ffffffffffffffffffffffffffffffffffffffff82169050919050565b7f4e6f7420636f7272656374207072696365000000000000000000000000000000600082015250565b7f596f752063616e2068617665206f6e6c79206f6e65207375627363726970746960008201527f6f6e20617420612074696d650000000000000000000000000000000000000000602082015250565b610465816103b2565b811461047057600080fd5b5056fea2646970667358221220a2405d6425d81e3aec15e32e33d40389fa8719102fc60680b267376ad3e952d164736f6c63430008040033",
  "linkReferences": {},
  "deployedLinkReferences": {}
}