{
  "_format": "hh-sol-artifact-1",
  "contractName": "Subscription",
  "sourceName": "contracts/Subscription.sol",
  "abi": [
    {
      "inputs": [
        {
          "internalType": "uint256",
          "name": "_subscriptionPrice",
          "type": "uint256"
        },
        {
          "internalType": "uint256",
          "name": "_rewardValue",
          "type": "uint256"
        }
      ],
      "stateMutability": "nonpayable",
      "type": "constructor"
    },
    {
      "anonymous": false,
      "inputs": [
        {
          "indexed": true,
          "internalType": "address",
          "name": "previousOwner",
          "type": "address"
        },
        {
          "indexed": true,
          "internalType": "address",
          "name": "newOwner",
          "type": "address"
        }
      ],
      "name": "OwnershipTransferred",
      "type": "event"
    },
    {
      "anonymous": false,
      "inputs": [
        {
          "indexed": false,
          "internalType": "address",
          "name": "subscriber",
          "type": "address"
        }
      ],
      "name": "SomeoneSubscribed",
      "type": "event"
    },
    {
      "inputs": [
        {
          "internalType": "address",
          "name": "agent",
          "type": "address"
        }
      ],
      "name": "addAgent",
      "outputs": [],
      "stateMutability": "nonpayable",
      "type": "function"
    },
    {
      "inputs": [
        {
          "internalType": "uint256",
          "name": "multiplier",
          "type": "uint256"
        },
        {
          "internalType": "address",
          "name": "subscriber",
          "type": "address"
        }
      ],
      "name": "claim",
      "outputs": [],
      "stateMutability": "nonpayable",
      "type": "function"
    },
    {
      "inputs": [
        {
          "internalType": "address",
          "name": "subscriber",
          "type": "address"
        }
      ],
      "name": "getNextClaimDate",
      "outputs": [
        {
          "internalType": "uint256",
          "name": "",
          "type": "uint256"
        }
      ],
      "stateMutability": "view",
      "type": "function"
    },
    {
      "inputs": [
        {
          "internalType": "address",
          "name": "subscriber",
          "type": "address"
        }
      ],
      "name": "getRegistrationDate",
      "outputs": [
        {
          "internalType": "uint256",
          "name": "",
          "type": "uint256"
        }
      ],
      "stateMutability": "view",
      "type": "function"
    },
    {
      "inputs": [],
      "name": "owner",
      "outputs": [
        {
          "internalType": "address",
          "name": "",
          "type": "address"
        }
      ],
      "stateMutability": "view",
      "type": "function"
    },
    {
      "inputs": [
        {
          "internalType": "address",
          "name": "agent",
          "type": "address"
        }
      ],
      "name": "removeAgent",
      "outputs": [],
      "stateMutability": "nonpayable",
      "type": "function"
    },
    {
      "inputs": [],
      "name": "renounceOwnership",
      "outputs": [],
      "stateMutability": "nonpayable",
      "type": "function"
    },
    {
      "inputs": [],
      "name": "rewardValue",
      "outputs": [
        {
          "internalType": "uint256",
          "name": "",
          "type": "uint256"
        }
      ],
      "stateMutability": "view",
      "type": "function"
    },
    {
      "inputs": [],
      "name": "subscribe",
      "outputs": [],
      "stateMutability": "payable",
      "type": "function"
    },
    {
      "inputs": [
        {
          "internalType": "address",
          "name": "subscriber",
          "type": "address"
        }
      ],
      "name": "subscribeToCurrentChain",
      "outputs": [],
      "stateMutability": "nonpayable",
      "type": "function"
    },
    {
      "inputs": [],
      "name": "subscriptionPrice",
      "outputs": [
        {
          "internalType": "uint256",
          "name": "",
          "type": "uint256"
        }
      ],
      "stateMutability": "view",
      "type": "function"
    },
    {
      "inputs": [
        {
          "internalType": "address",
          "name": "newOwner",
          "type": "address"
        }
      ],
      "name": "transferOwnership",
      "outputs": [],
      "stateMutability": "nonpayable",
      "type": "function"
    },
    {
      "inputs": [
        {
          "internalType": "address",
          "name": "subscriber",
          "type": "address"
        }
      ],
      "name": "unsubscribe",
      "outputs": [],
      "stateMutability": "nonpayable",
      "type": "function"
    }
  ],
  "bytecode": "0x60806040523480156200001157600080fd5b50604051620016cc380380620016cc8339818101604052810190620000379190620001a8565b620000576200004b620000c560201b60201c565b620000cd60201b60201c565b81600581905550806006819055506001600260003373ffffffffffffffffffffffffffffffffffffffff1673ffffffffffffffffffffffffffffffffffffffff16815260200190815260200160002060006101000a81548160ff02191690831515021790555050506200020d565b600033905090565b60008060009054906101000a900473ffffffffffffffffffffffffffffffffffffffff169050816000806101000a81548173ffffffffffffffffffffffffffffffffffffffff021916908373ffffffffffffffffffffffffffffffffffffffff1602179055508173ffffffffffffffffffffffffffffffffffffffff168173ffffffffffffffffffffffffffffffffffffffff167f8be0079c531659141344cd1fd0a4f28419497f9722a3daafe3b4186f6b6457e060405160405180910390a35050565b600081519050620001a281620001f3565b92915050565b60008060408385031215620001bc57600080fd5b6000620001cc8582860162000191565b9250506020620001df8582860162000191565b9150509250929050565b6000819050919050565b620001fe81620001e9565b81146200020a57600080fd5b50565b6114af806200021d6000396000f3fe6080604052600436106100c25760003560e01c806384e798421161007f57806397a6278e1161005957806397a6278e14610233578063bdc8e54c1461025c578063ddd5e1b214610287578063f2fde38b146102b0576100c2565b806384e79842146101d55780638da5cb5b146101fe5780638f449a0514610229576100c2565b806312c7df73146100c757806355548e45146100f2578063562578b61461012f578063667e19991461016c578063715018a6146101955780637262561c146101ac575b600080fd5b3480156100d357600080fd5b506100dc6102d9565b6040516100e99190611119565b60405180910390f35b3480156100fe57600080fd5b5061011960048036038101906101149190610e6e565b6102df565b6040516101269190611119565b60405180910390f35b34801561013b57600080fd5b5061015660048036038101906101519190610e6e565b610328565b6040516101639190611119565b60405180910390f35b34801561017857600080fd5b50610193600480360381019061018e9190610e6e565b610371565b005b3480156101a157600080fd5b506101aa6104ea565b005b3480156101b857600080fd5b506101d360048036038101906101ce9190610e6e565b610572565b005b3480156101e157600080fd5b506101fc60048036038101906101f79190610e6e565b610659565b005b34801561020a57600080fd5b50610213610730565b604051610220919061101e565b60405180910390f35b610231610759565b005b34801561023f57600080fd5b5061025a60048036038101906102559190610e6e565b610954565b005b34801561026857600080fd5b50610271610a2b565b60405161027e9190611119565b60405180910390f35b34801561029357600080fd5b506102ae60048036038101906102a99190610e97565b610a31565b005b3480156102bc57600080fd5b506102d760048036038101906102d29190610e6e565b610c80565b005b60065481565b6000600360008373ffffffffffffffffffffffffffffffffffffffff1673ffffffffffffffffffffffffffffffffffffffff168152602001908152602001600020549050919050565b6000600460008373ffffffffffffffffffffffffffffffffffffffff1673ffffffffffffffffffffffffffffffffffffffff168152602001908152602001600020549050919050565b600260003373ffffffffffffffffffffffffffffffffffffffff1673ffffffffffffffffffffffffffffffffffffffff16815260200190815260200160002060009054906101000a900460ff166103fd576040517f08c379a00000000000000000000000000000000000000000000000000000000081526004016103f490611039565b60405180910390fd5b60001515600160008373ffffffffffffffffffffffffffffffffffffffff1673ffffffffffffffffffffffffffffffffffffffff16815260200190815260200160002060009054906101000a900460ff16151514610490576040517f08c379a0000000000000000000000000000000000000000000000000000000008152600401610487906110f9565b60405180910390fd5b60018060008373ffffffffffffffffffffffffffffffffffffffff1673ffffffffffffffffffffffffffffffffffffffff16815260200190815260200160002060006101000a81548160ff02191690831515021790555050565b6104f2610d78565b73ffffffffffffffffffffffffffffffffffffffff16610510610730565b73ffffffffffffffffffffffffffffffffffffffff1614610566576040517f08c379a000000000000000000000000000000000000000000000000000000000815260040161055d906110d9565b60405180910390fd5b6105706000610d80565b565b600260003373ffffffffffffffffffffffffffffffffffffffff1673ffffffffffffffffffffffffffffffffffffffff16815260200190815260200160002060009054906101000a900460ff166105fe576040517f08c379a00000000000000000000000000000000000000000000000000000000081526004016105f590611039565b60405180910390fd5b6000600160008373ffffffffffffffffffffffffffffffffffffffff1673ffffffffffffffffffffffffffffffffffffffff16815260200190815260200160002060006101000a81548160ff02191690831515021790555050565b610661610d78565b73ffffffffffffffffffffffffffffffffffffffff1661067f610730565b73ffffffffffffffffffffffffffffffffffffffff16146106d5576040517f08c379a00000000000000000000000000000000000000000000000000000000081526004016106cc906110d9565b60405180910390fd5b6001600260008373ffffffffffffffffffffffffffffffffffffffff1673ffffffffffffffffffffffffffffffffffffffff16815260200190815260200160002060006101000a81548160ff02191690831515021790555050565b60008060009054906101000a900473ffffffffffffffffffffffffffffffffffffffff16905090565b600554341461079d576040517f08c379a0000000000000000000000000000000000000000000000000000000008152600401610794906110b9565b60405180910390fd5b60001515600160003373ffffffffffffffffffffffffffffffffffffffff1673ffffffffffffffffffffffffffffffffffffffff16815260200190815260200160002060009054906101000a900460ff16151514610830576040517f08c379a0000000000000000000000000000000000000000000000000000000008152600401610827906110f9565b60405180910390fd5b60018060003373ffffffffffffffffffffffffffffffffffffffff1673ffffffffffffffffffffffffffffffffffffffff16815260200190815260200160002060006101000a81548160ff02191690831515021790555042600460003373ffffffffffffffffffffffffffffffffffffffff1673ffffffffffffffffffffffffffffffffffffffff16815260200190815260200160002081905550600a426108d89190611150565b600360003373ffffffffffffffffffffffffffffffffffffffff1673ffffffffffffffffffffffffffffffffffffffff168152602001908152602001600020819055507f8b10164fab72f1cca2949c1bdaaa23a0ac7ea68833417a84acc427bc49b104b43360405161094a919061101e565b60405180910390a1565b61095c610d78565b73ffffffffffffffffffffffffffffffffffffffff1661097a610730565b73ffffffffffffffffffffffffffffffffffffffff16146109d0576040517f08c379a00000000000000000000000000000000000000000000000000000000081526004016109c7906110d9565b60405180910390fd5b6000600260008373ffffffffffffffffffffffffffffffffffffffff1673ffffffffffffffffffffffffffffffffffffffff16815260200190815260200160002060006101000a81548160ff02191690831515021790555050565b60055481565b600160008273ffffffffffffffffffffffffffffffffffffffff1673ffffffffffffffffffffffffffffffffffffffff16815260200190815260200160002060009054906101000a900460ff16610abd576040517f08c379a0000000000000000000000000000000000000000000000000000000008152600401610ab490611079565b60405180910390fd5b600082600654610acd91906111a6565b9050600a83610adc91906111a6565b600360008473ffffffffffffffffffffffffffffffffffffffff1673ffffffffffffffffffffffffffffffffffffffff1681526020019081526020016000206000828254610b2a9190611150565b9250508190555060008273ffffffffffffffffffffffffffffffffffffffff1682604051610b5790611009565b60006040518083038185875af1925050503d8060008114610b94576040519150601f19603f3d011682016040523d82523d6000602084013e610b99565b606091505b5050905080610bdd576040517f08c379a0000000000000000000000000000000000000000000000000000000008152600401610bd490611099565b60405180910390fd5b61012c600460008573ffffffffffffffffffffffffffffffffffffffff1673ffffffffffffffffffffffffffffffffffffffff16815260200190815260200160002054610c2a9190611150565b600360008573ffffffffffffffffffffffffffffffffffffffff1673ffffffffffffffffffffffffffffffffffffffff168152602001908152602001600020541115610c7a57610c7983610572565b5b50505050565b610c88610d78565b73ffffffffffffffffffffffffffffffffffffffff16610ca6610730565b73ffffffffffffffffffffffffffffffffffffffff1614610cfc576040517f08c379a0000000000000000000000000000000000000000000000000000000008152600401610cf3906110d9565b60405180910390fd5b600073ffffffffffffffffffffffffffffffffffffffff168173ffffffffffffffffffffffffffffffffffffffff161415610d6c576040517f08c379a0000000000000000000000000000000000000000000000000000000008152600401610d6390611059565b60405180910390fd5b610d7581610d80565b50565b600033905090565b60008060009054906101000a900473ffffffffffffffffffffffffffffffffffffffff169050816000806101000a81548173ffffffffffffffffffffffffffffffffffffffff021916908373ffffffffffffffffffffffffffffffffffffffff1602179055508173ffffffffffffffffffffffffffffffffffffffff168173ffffffffffffffffffffffffffffffffffffffff167f8be0079c531659141344cd1fd0a4f28419497f9722a3daafe3b4186f6b6457e060405160405180910390a35050565b600081359050610e538161144b565b92915050565b600081359050610e6881611462565b92915050565b600060208284031215610e8057600080fd5b6000610e8e84828501610e44565b91505092915050565b60008060408385031215610eaa57600080fd5b6000610eb885828601610e59565b9250506020610ec985828601610e44565b9150509250929050565b610edc81611200565b82525050565b6000610eef60228361113f565b9150610efa8261126b565b604082019050919050565b6000610f1260268361113f565b9150610f1d826112ba565b604082019050919050565b6000610f3560278361113f565b9150610f4082611309565b604082019050919050565b6000610f5860358361113f565b9150610f6382611358565b604082019050919050565b6000610f7b60118361113f565b9150610f86826113a7565b602082019050919050565b6000610f9e60208361113f565b9150610fa9826113d0565b602082019050919050565b6000610fc1602c8361113f565b9150610fcc826113f9565b604082019050919050565b6000610fe4600083611134565b9150610fef82611448565b600082019050919050565b61100381611232565b82525050565b600061101482610fd7565b9150819050919050565b60006020820190506110336000830184610ed3565b92915050565b6000602082019050818103600083015261105281610ee2565b9050919050565b6000602082019050818103600083015261107281610f05565b9050919050565b6000602082019050818103600083015261109281610f28565b9050919050565b600060208201905081810360008301526110b281610f4b565b9050919050565b600060208201905081810360008301526110d281610f6e565b9050919050565b600060208201905081810360008301526110f281610f91565b9050919050565b6000602082019050818103600083015261111281610fb4565b9050919050565b600060208201905061112e6000830184610ffa565b92915050565b600081905092915050565b600082825260208201905092915050565b600061115b82611232565b915061116683611232565b9250827fffffffffffffffffffffffffffffffffffffffffffffffffffffffffffffffff0382111561119b5761119a61123c565b5b828201905092915050565b60006111b182611232565b91506111bc83611232565b9250817fffffffffffffffffffffffffffffffffffffffffffffffffffffffffffffffff04831182151516156111f5576111f461123c565b5b828202905092915050565b600061120b82611212565b9050919050565b600073ffffffffffffffffffffffffffffffffffffffff82169050919050565b6000819050919050565b7f4e487b7100000000000000000000000000000000000000000000000000000000600052601160045260246000fd5b7f4f6e6c79206167656e74732063616e2063616c6c20746869732066756e63746960008201527f6f6e000000000000000000000000000000000000000000000000000000000000602082015250565b7f4f776e61626c653a206e6577206f776e657220697320746865207a65726f206160008201527f6464726573730000000000000000000000000000000000000000000000000000602082015250565b7f596f75206d757374206265207375627363726962656420746f20636c61696d2060008201527f7265776172647300000000000000000000000000000000000000000000000000602082015250565b7f5765206172652062726f6b6520736f20776520776f6e2774206769766520796f60008201527f7520616e79206d6f6e6579207269676874206e6f770000000000000000000000602082015250565b7f4e6f7420636f7272656374207072696365000000000000000000000000000000600082015250565b7f4f776e61626c653a2063616c6c6572206973206e6f7420746865206f776e6572600082015250565b7f596f752063616e2068617665206f6e6c79206f6e65207375627363726970746960008201527f6f6e20617420612074696d650000000000000000000000000000000000000000602082015250565b50565b61145481611200565b811461145f57600080fd5b50565b61146b81611232565b811461147657600080fd5b5056fea2646970667358221220901855b6dcc135bea3bdc15b24bd3166dd059d132a4cf7375eafcf9f789acb1864736f6c63430008040033",
  "linkReferences": {},
  "deployedLinkReferences": {}
}