{
  "_format": "hh-sol-artifact-1",
  "contractName": "Subscription",
  "sourceName": "contracts/Subscription.sol",
  "abi": [
    {
      "inputs": [
        {
          "internalType": "uint256",
          "name": "_subscriptionPrice",
          "type": "uint256"
        },
        {
          "internalType": "uint256",
          "name": "_rewardValue",
          "type": "uint256"
        }
      ],
      "stateMutability": "nonpayable",
      "type": "constructor"
    },
    {
      "anonymous": false,
      "inputs": [
        {
          "indexed": true,
          "internalType": "address",
          "name": "previousOwner",
          "type": "address"
        },
        {
          "indexed": true,
          "internalType": "address",
          "name": "newOwner",
          "type": "address"
        }
      ],
      "name": "OwnershipTransferred",
      "type": "event"
    },
    {
      "anonymous": false,
      "inputs": [
        {
          "indexed": false,
          "internalType": "address",
          "name": "subscriber",
          "type": "address"
        }
      ],
      "name": "SomeoneSubscribed",
      "type": "event"
    },
    {
      "inputs": [
        {
          "internalType": "address",
          "name": "agent",
          "type": "address"
        }
      ],
      "name": "addAgent",
      "outputs": [],
      "stateMutability": "nonpayable",
      "type": "function"
    },
    {
      "inputs": [
        {
          "internalType": "address",
          "name": "",
          "type": "address"
        }
      ],
      "name": "agents",
      "outputs": [
        {
          "internalType": "bool",
          "name": "",
          "type": "bool"
        }
      ],
      "stateMutability": "view",
      "type": "function"
    },
    {
      "inputs": [
        {
          "internalType": "uint256",
          "name": "multiplier",
          "type": "uint256"
        },
        {
          "internalType": "address",
          "name": "subscriber",
          "type": "address"
        }
      ],
      "name": "claim",
      "outputs": [],
      "stateMutability": "nonpayable",
      "type": "function"
    },
    {
      "inputs": [
        {
          "internalType": "address",
          "name": "subscriber",
          "type": "address"
        }
      ],
      "name": "getNextClaimDate",
      "outputs": [
        {
          "internalType": "uint256",
          "name": "",
          "type": "uint256"
        }
      ],
      "stateMutability": "view",
      "type": "function"
    },
    {
      "inputs": [
        {
          "internalType": "address",
          "name": "subscriber",
          "type": "address"
        }
      ],
      "name": "getRegistrationDate",
      "outputs": [
        {
          "internalType": "uint256",
          "name": "",
          "type": "uint256"
        }
      ],
      "stateMutability": "view",
      "type": "function"
    },
    {
      "inputs": [
        {
          "internalType": "address",
          "name": "",
          "type": "address"
        }
      ],
      "name": "nextClaimDate",
      "outputs": [
        {
          "internalType": "uint256",
          "name": "",
          "type": "uint256"
        }
      ],
      "stateMutability": "view",
      "type": "function"
    },
    {
      "inputs": [],
      "name": "owner",
      "outputs": [
        {
          "internalType": "address",
          "name": "",
          "type": "address"
        }
      ],
      "stateMutability": "view",
      "type": "function"
    },
    {
      "inputs": [
        {
          "internalType": "address",
          "name": "",
          "type": "address"
        }
      ],
      "name": "registrationDate",
      "outputs": [
        {
          "internalType": "uint256",
          "name": "",
          "type": "uint256"
        }
      ],
      "stateMutability": "view",
      "type": "function"
    },
    {
      "inputs": [
        {
          "internalType": "address",
          "name": "agent",
          "type": "address"
        }
      ],
      "name": "removeAgent",
      "outputs": [],
      "stateMutability": "nonpayable",
      "type": "function"
    },
    {
      "inputs": [],
      "name": "renounceOwnership",
      "outputs": [],
      "stateMutability": "nonpayable",
      "type": "function"
    },
    {
      "inputs": [],
      "name": "subscribe",
      "outputs": [],
      "stateMutability": "payable",
      "type": "function"
    },
    {
      "inputs": [
        {
          "internalType": "address",
          "name": "subscriber",
          "type": "address"
        }
      ],
      "name": "subscribeToCurrentChain",
      "outputs": [],
      "stateMutability": "nonpayable",
      "type": "function"
    },
    {
      "inputs": [
        {
          "internalType": "address",
          "name": "",
          "type": "address"
        }
      ],
      "name": "subscribers",
      "outputs": [
        {
          "internalType": "bool",
          "name": "",
          "type": "bool"
        }
      ],
      "stateMutability": "view",
      "type": "function"
    },
    {
      "inputs": [
        {
          "internalType": "address",
          "name": "newOwner",
          "type": "address"
        }
      ],
      "name": "transferOwnership",
      "outputs": [],
      "stateMutability": "nonpayable",
      "type": "function"
    },
    {
      "inputs": [
        {
          "internalType": "address",
          "name": "subscriber",
          "type": "address"
        }
      ],
      "name": "unsubscribe",
      "outputs": [],
      "stateMutability": "nonpayable",
      "type": "function"
    }
  ],
  "bytecode": "0x60806040523480156200001157600080fd5b50604051620013e1380380620013e18339818101604052810190620000379190620001a8565b620000576200004b620000c560201b60201c565b620000cd60201b60201c565b81600581905550806006819055506001600260003373ffffffffffffffffffffffffffffffffffffffff1673ffffffffffffffffffffffffffffffffffffffff16815260200190815260200160002060006101000a81548160ff02191690831515021790555050506200020d565b600033905090565b60008060009054906101000a900473ffffffffffffffffffffffffffffffffffffffff169050816000806101000a81548173ffffffffffffffffffffffffffffffffffffffff021916908373ffffffffffffffffffffffffffffffffffffffff1602179055508173ffffffffffffffffffffffffffffffffffffffff168173ffffffffffffffffffffffffffffffffffffffff167f8be0079c531659141344cd1fd0a4f28419497f9722a3daafe3b4186f6b6457e060405160405180910390a35050565b600081519050620001a281620001f3565b92915050565b60008060408385031215620001bc57600080fd5b6000620001cc8582860162000191565b9250506020620001df8582860162000191565b9150509250929050565b6000819050919050565b620001fe81620001e9565b81146200020a57600080fd5b50565b6111c4806200021d6000396000f3fe6080604052600436106100e85760003560e01c80638da5cb5b1161008a578063a2911fcd11610059578063a2911fcd146102d1578063ddd5e1b21461030e578063f2fde38b14610337578063fd66091e14610360576100e8565b80638da5cb5b146102365780638f449a0514610261578063921f90921461026b57806397a6278e146102a8576100e8565b8063667e1999116100c6578063667e1999146101a4578063715018a6146101cd5780637262561c146101e457806384e798421461020d576100e8565b806355548e45146100ed578063562578b61461012a5780635745ae2814610167575b600080fd5b3480156100f957600080fd5b50610114600480360381019061010f9190610d03565b61039d565b6040516101219190610f0f565b60405180910390f35b34801561013657600080fd5b50610151600480360381019061014c9190610d03565b6103e6565b60405161015e9190610f0f565b60405180910390f35b34801561017357600080fd5b5061018e60048036038101906101899190610d03565b61042f565b60405161019b9190610e74565b60405180910390f35b3480156101b057600080fd5b506101cb60048036038101906101c69190610d03565b61044f565b005b3480156101d957600080fd5b506101e2610535565b005b3480156101f057600080fd5b5061020b60048036038101906102069190610d03565b6105bd565b005b34801561021957600080fd5b50610234600480360381019061022f9190610d03565b6106a4565b005b34801561024257600080fd5b5061024b61077b565b6040516102589190610e59565b60405180910390f35b6102696107a4565b005b34801561027757600080fd5b50610292600480360381019061028d9190610d03565b6108c8565b60405161029f9190610f0f565b60405180910390f35b3480156102b457600080fd5b506102cf60048036038101906102ca9190610d03565b6108e0565b005b3480156102dd57600080fd5b506102f860048036038101906102f39190610d03565b6109b7565b6040516103059190610f0f565b60405180910390f35b34801561031a57600080fd5b5061033560048036038101906103309190610d2c565b6109cf565b005b34801561034357600080fd5b5061035e60048036038101906103599190610d03565b610af5565b005b34801561036c57600080fd5b5061038760048036038101906103829190610d03565b610bed565b6040516103949190610e74565b60405180910390f35b6000600360008373ffffffffffffffffffffffffffffffffffffffff1673ffffffffffffffffffffffffffffffffffffffff168152602001908152602001600020549050919050565b6000600460008373ffffffffffffffffffffffffffffffffffffffff1673ffffffffffffffffffffffffffffffffffffffff168152602001908152602001600020549050919050565b60016020528060005260406000206000915054906101000a900460ff1681565b600260003373ffffffffffffffffffffffffffffffffffffffff1673ffffffffffffffffffffffffffffffffffffffff16815260200190815260200160002060009054906101000a900460ff166104db576040517f08c379a00000000000000000000000000000000000000000000000000000000081526004016104d290610e8f565b60405180910390fd5b60018060008373ffffffffffffffffffffffffffffffffffffffff1673ffffffffffffffffffffffffffffffffffffffff16815260200190815260200160002060006101000a81548160ff02191690831515021790555050565b61053d610c0d565b73ffffffffffffffffffffffffffffffffffffffff1661055b61077b565b73ffffffffffffffffffffffffffffffffffffffff16146105b1576040517f08c379a00000000000000000000000000000000000000000000000000000000081526004016105a890610ecf565b60405180910390fd5b6105bb6000610c15565b565b600260003373ffffffffffffffffffffffffffffffffffffffff1673ffffffffffffffffffffffffffffffffffffffff16815260200190815260200160002060009054906101000a900460ff16610649576040517f08c379a000000000000000000000000000000000000000000000000000000000815260040161064090610e8f565b60405180910390fd5b6000600160008373ffffffffffffffffffffffffffffffffffffffff1673ffffffffffffffffffffffffffffffffffffffff16815260200190815260200160002060006101000a81548160ff02191690831515021790555050565b6106ac610c0d565b73ffffffffffffffffffffffffffffffffffffffff166106ca61077b565b73ffffffffffffffffffffffffffffffffffffffff1614610720576040517f08c379a000000000000000000000000000000000000000000000000000000000815260040161071790610ecf565b60405180910390fd5b6001600260008373ffffffffffffffffffffffffffffffffffffffff1673ffffffffffffffffffffffffffffffffffffffff16815260200190815260200160002060006101000a81548160ff02191690831515021790555050565b60008060009054906101000a900473ffffffffffffffffffffffffffffffffffffffff16905090565b60018060003373ffffffffffffffffffffffffffffffffffffffff1673ffffffffffffffffffffffffffffffffffffffff16815260200190815260200160002060006101000a81548160ff02191690831515021790555042600460003373ffffffffffffffffffffffffffffffffffffffff1673ffffffffffffffffffffffffffffffffffffffff1681526020019081526020016000208190555060024261084c9190610f46565b600360003373ffffffffffffffffffffffffffffffffffffffff1673ffffffffffffffffffffffffffffffffffffffff168152602001908152602001600020819055507f8b10164fab72f1cca2949c1bdaaa23a0ac7ea68833417a84acc427bc49b104b4336040516108be9190610e59565b60405180910390a1565b60036020528060005260406000206000915090505481565b6108e8610c0d565b73ffffffffffffffffffffffffffffffffffffffff1661090661077b565b73ffffffffffffffffffffffffffffffffffffffff161461095c576040517f08c379a000000000000000000000000000000000000000000000000000000000815260040161095390610ecf565b60405180910390fd5b6000600260008373ffffffffffffffffffffffffffffffffffffffff1673ffffffffffffffffffffffffffffffffffffffff16815260200190815260200160002060006101000a81548160ff02191690831515021790555050565b60046020528060005260406000206000915090505481565b6000826006546109df9190610f9c565b90506002836109ee9190610f9c565b600360008473ffffffffffffffffffffffffffffffffffffffff1673ffffffffffffffffffffffffffffffffffffffff1681526020019081526020016000206000828254610a3c9190610f46565b9250508190555060008273ffffffffffffffffffffffffffffffffffffffff1682604051610a6990610e44565b60006040518083038185875af1925050503d8060008114610aa6576040519150601f19603f3d011682016040523d82523d6000602084013e610aab565b606091505b5050905080610aef576040517f08c379a0000000000000000000000000000000000000000000000000000000008152600401610ae690610eef565b60405180910390fd5b50505050565b610afd610c0d565b73ffffffffffffffffffffffffffffffffffffffff16610b1b61077b565b73ffffffffffffffffffffffffffffffffffffffff1614610b71576040517f08c379a0000000000000000000000000000000000000000000000000000000008152600401610b6890610ecf565b60405180910390fd5b600073ffffffffffffffffffffffffffffffffffffffff168173ffffffffffffffffffffffffffffffffffffffff161415610be1576040517f08c379a0000000000000000000000000000000000000000000000000000000008152600401610bd890610eaf565b60405180910390fd5b610bea81610c15565b50565b60026020528060005260406000206000915054906101000a900460ff1681565b600033905090565b60008060009054906101000a900473ffffffffffffffffffffffffffffffffffffffff169050816000806101000a81548173ffffffffffffffffffffffffffffffffffffffff021916908373ffffffffffffffffffffffffffffffffffffffff1602179055508173ffffffffffffffffffffffffffffffffffffffff168173ffffffffffffffffffffffffffffffffffffffff167f8be0079c531659141344cd1fd0a4f28419497f9722a3daafe3b4186f6b6457e060405160405180910390a35050565b600081359050610ce881611160565b92915050565b600081359050610cfd81611177565b92915050565b600060208284031215610d1557600080fd5b6000610d2384828501610cd9565b91505092915050565b60008060408385031215610d3f57600080fd5b6000610d4d85828601610cee565b9250506020610d5e85828601610cd9565b9150509250929050565b610d7181610ff6565b82525050565b610d8081611008565b82525050565b6000610d93602283610f35565b9150610d9e8261106d565b604082019050919050565b6000610db6602683610f35565b9150610dc1826110bc565b604082019050919050565b6000610dd9602083610f35565b9150610de48261110b565b602082019050919050565b6000610dfc601783610f35565b9150610e0782611134565b602082019050919050565b6000610e1f600083610f2a565b9150610e2a8261115d565b600082019050919050565b610e3e81611034565b82525050565b6000610e4f82610e12565b9150819050919050565b6000602082019050610e6e6000830184610d68565b92915050565b6000602082019050610e896000830184610d77565b92915050565b60006020820190508181036000830152610ea881610d86565b9050919050565b60006020820190508181036000830152610ec881610da9565b9050919050565b60006020820190508181036000830152610ee881610dcc565b9050919050565b60006020820190508181036000830152610f0881610def565b9050919050565b6000602082019050610f246000830184610e35565b92915050565b600081905092915050565b600082825260208201905092915050565b6000610f5182611034565b9150610f5c83611034565b9250827fffffffffffffffffffffffffffffffffffffffffffffffffffffffffffffffff03821115610f9157610f9061103e565b5b828201905092915050565b6000610fa782611034565b9150610fb283611034565b9250817fffffffffffffffffffffffffffffffffffffffffffffffffffffffffffffffff0483118215151615610feb57610fea61103e565b5b828202905092915050565b600061100182611014565b9050919050565b60008115159050919050565b600073ffffffffffffffffffffffffffffffffffffffff82169050919050565b6000819050919050565b7f4e487b7100000000000000000000000000000000000000000000000000000000600052601160045260246000fd5b7f4f6e6c79206167656e74732063616e2063616c6c20746869732066756e63746960008201527f6f6e000000000000000000000000000000000000000000000000000000000000602082015250565b7f4f776e61626c653a206e6577206f776e657220697320746865207a65726f206160008201527f6464726573730000000000000000000000000000000000000000000000000000602082015250565b7f4f776e61626c653a2063616c6c6572206973206e6f7420746865206f776e6572600082015250565b7f536f6d657468696e672077656e742077726f6e67203a28000000000000000000600082015250565b50565b61116981610ff6565b811461117457600080fd5b50565b61118081611034565b811461118b57600080fd5b5056fea26469706673582212207a7bfa55379b4dfde20c9a31db70b449739be54dd4fbd64951fc6ad41fd3902664736f6c63430008040033",
  "linkReferences": {},
  "deployedLinkReferences": {}
}